:1000000002012880338C2B8D2C8013758CD8758A37
:10001000F0D28C308D02800280F9C28DC28CAC2B64
:10002000E52CFD152C7002152BED24FFEC648034BB
:100030007F4002800280D42280CB020111758902A8
:10004000752200752301752402752504752608752F
:100050002710752820752940752A808522907C00FC
:100060007D02120003752000752101E52124F9E5C8
:10007000206480347F50028002800302010D80548E
:10008000792587907C007D0A120003792687907C71
:10009000007D0A120003805C792787907C007D0A2E
:1000A000120003804F792887907C007D0A1200039C
:1000B0008042E523252AF5907C007D2812000380EC
:1000C00033E5242529F5907C007D3C120003802433
:1000D00080228020A820A9218015E91460A2146044
:1000E000AA1460B41460BE1460C81460D480E1E83F
:1000F00060E880DC0521E52170020520E52124F976
:10010000E5206480347F5002800302007E02006597
:100110002202003DE4F5D075812D78207A0DF60895
:0B012000DAFC12003A02000002011499
:00000001FF
